:020000040000FA
:1000000000008A110A12C629F200030E8301F100D2
:100010000A088A01F000040883120313BF00831248
:1000200003138C1E4928831203132B088312031316
:10003000A000031920282008013A03193228462875
:100040000310831203131A0C83120313A900031065
:10005000A90C0310A90C10302902031C46280F30EC
:10006000A90046280310831203131A0C83120313EA
:10007000AA000310AA0C0310AA0C10302A02031CB9
:1000800043280F30AA00831203131812831203139C
:10009000AB0A831203130B1C6E280B10831203137D
:1000A000AB0183120313A00183120313861E5B2886
:1000B00083120313A00A83120313200800300319CC
:1000C0000130A100A000200C03186928831203133B
:1000D0001812031C6E2883120313181683120313BD
:1000E0000B1DB828831203132908831203132A0255
:1000F00003187F282A0883120313A000852883127F
:100100000313290883120313A0000E308312031374
:100110002902031C95280E30831203132A02031CA4
:100120009528013083120313AC00831203132C08AB
:1001300083120313A1000319A2282108013A03190D
:10014000A728AA28FF30831203139700AA28831236
:100150000313970183120313AC0A831203132008BD
:10016000831203132C020318AC01831203130B1127
:10017000831203133F0883120313840070088A005C
:100180008301710E8300F20E720E090083120317B1
:100190008701831203138B01831203170510831643
:1001A00003138901FF30831203138900F030831693
:1001B00003138600FF30831203138600D0308316AA
:1001C00003138700FF308312031387008316031382
:1001D0008801FF308312031388008101D730831612
:1001E00003138105831203138B168B1583160313D8
:1001F00096161816831203139817831603138C167A
:10020000831203130B178B177F308316031392008F
:100210004F30831203139500970191019214121528
:100220000F3083120313A90083120313AA00831251
:100230000313AD0183120313AB0183120313AC014B
:10024000831203132908D43E83120313A200023041
:100250000318013EA3002208FE002308FF0080309F
:100260008A110A1262228A110A1283120313A4004D
:10027000831203132A08E43E83120313A200023000
:100280000318013EA3002208FE002308FF0080306F
:100290008A110A1262228A110A1283120313A5001C
:1002A0000230FF00831203132D088A110A12B622AE
:1002B0008A110A1283120313A200A3012208963E98
:1002C000A20000300318230F023EA3002208FE0004
:1002D0002308FF0080308A110A1275228A110A123F
:1002E00083120313A7007F08A800A600F030831232
:1002F0000313070583120313A2002408A8040F3078
:10030000A80528082204831203138700831203130D
:10031000250EF039A200240E0F39A8002204A400F3
:10032000260E0F39A200270EA800F039A204A80655
:10033000F030A819A80422082404831203138800AB
:10034000F030060583120313A200250E0F39A40016
:100350002204A500270E0F39A200F030A219A20432
:10036000A401A21BA4032208A600250483120313E0
:100370008600831203132D0A83120313A2000F3089
:10038000220583120313AD0020290800F430FE007B
:100390000230FF0080308A110A1275228A110A1277
:1003A00083120313AF007F08AE00F630B0000230B6
:1003B000B100831203132E08B2002F08B300FF30E0
:1003C000AE07031CAF033208330403195E2A04305E
:1003D0003007B200B301B30D3108B3073208FE0095
:1003E0003308FF0080308A110A1275228A110A121E
:1003F00083120313B5007F08B4003008FE003108F3
:10040000FF0080308A110A1275228A110A128312A3
:100410000313B700B3007F08B600B2000230300704
:10042000B200B301B30D3108B3073208FE00330840
:10043000FF0080308A110A1275228A110A12831273
:100440000313B300B9007F08B200B800831203138E
:100450003408B8003508B900FF30B407031CB503F1
:10046000380839040319572A3608FE003708FF00F8
:1004700080308A110A1262228A110A12831203132F
:10048000B80032088312031384008313831203130A
:100490003318831738088312031380008312031361
:1004A000B60A0319B70AB20A0319B30A262A063094
:1004B00083120313B0070318B10AD9298A110A124B
:1004C000C6280800003A0319692A803A0319702ADD
:1004D00000347E08840083137F1883170008080007
:1004E0007F088A007E0882000800003A03197D2AEE
:1004F000803A0319872AFF0100347E0884008313A1
:100500007F1883170008FF00840A000808008A117A
:100510000A127022FD00FE0FFF03FF0A8A110A1261
:100520007022FC007D08FF007C080800FE34FF34C8
:10053000FD34FF34FB34FF34F734FF34EF34FF3441
:10054000DF34FF34BF34FF347F34FF34FF34FE34F4
:10055000FF34FD34FF34FB34FF34F734FF34EF3421
:10056000FF34DF34FF34BF34FF347F34831203138E
:10057000BA007F08BB00BC010830BD008312031322
:100580003A1CC42A3B08BC07031083120313BA0C9D
:1005900003103B0DBE00BB003D03BE00BD003E0886
:1005A000031DBE2A3C0808000034003440344034A7
:1005B0006034603470347034783478347C347C3413
:1005C0007E347E347F347F3400340034023402348D
:1005D000063406340E340E341E341E343E343E349B
:1005E0007E347E34FE34FE3401340034FC34023474
:0A05F00040340034013400340034BC
:02400E00F23F7F
:00000001FF
