:020000040000FA
:1000000000008A110A12B129F200030E8301F100E7
:100010000A088A01F000040883120313BE00831249
:1000200003130B1C352883120313A001831203133F
:10003000861E1D2883120313A00A831203132008AF
:10004000003003190130A000200C03182A28831265
:1000500003131812031C2F2883120313181683127C
:1000600003130B1083120313A801831203138C1EB6
:10007000632883120313280883120313A0000319B3
:1000800046282008013A03195228602803108312D9
:1000900003131A0C83120313A9000310A90C0310F5
:1000A000A90C60280310831203131A0C8312031384
:1000B000AA000310AA0C0310AA0C8312031318122F
:1000C00083120313A80A831203130B1D9F288312A4
:1000D00003132B0883120313A000031974282008AC
:1000E000013A031979287C28831203139101121510
:1000F0007C2883120313121183120313290883121D
:1001000003132A0203188A280F302A0583120313C7
:10011000A00091280F3083120313290583120313C3
:10012000A00083120313AB0A831203132008831267
:1001300003132B020318AB01831203130B11831259
:1001400003133E0883120313840070088A0083019E
:10015000710E8300F20E720E0900831203178701DD
:10016000831203138B0183120317051083160313E5
:100170008901FF30831203138900F03083160313C3
:100180008600FF30831203138600D03083160313DA
:100190008700FF308312031387008316031388013F
:1001A000FF308312031388008101D73083160313B5
:1001B0008105831203138B168B1583160313961672
:1001C0001816831203139817831603138C168312C1
:1001D00003130B178B177F308316031392004F30D6
:1001E000831203139500FF309700910192140F3092
:1001F00083120313A90083120313AA0083120313AB
:10020000AC0183120313A80183120313AB010F3057
:1002100083120313290583120313A100BF3EA1001B
:1002200002300318013EA2002108FE002208FF0050
:1002300080308A110A124D228A110A128312031386
:10024000A3000F30831203132A0583120313A100A6
:10025000CF3EA10002300318013EA2002108FE009B
:100260002208FF0080308A110A124D228A110A12D8
:1002700083120313A4000230FF00831203132C081F
:100280008A110A12A1228A110A1283120313A100F1
:10029000A2012108813EA10000300318220F023E76
:1002A000A2002108FE002208FF0080308A110A12F5
:1002B00060228A110A1283120313A6007F08A70086
:1002C000A500F03083120313070583120313A10066
:1002D0002308A7040F30A70527082104831203135E
:1002E000870083120313240EF039A100230E0F3967
:1002F000A7002104A300250E0F39A100260EA70098
:10030000F039A104A706F030A719A7042108230497
:10031000831203138800F030060583120313A10033
:10032000240E0F39A3002104A400260E0F39A100CA
:10033000F030A119A104A301A11BA3032108A5006A
:100340002404831203138600831203132C0A8312DE
:100350000313A1000F30210583120313AC000729FA
:100360000800DF30FE000230FF0080308A110A12E0
:1003700060228A110A1283120313AE007F08AD00B7
:10038000E130AF000230B000831203132D08B1003A
:100390002E08B200FF30AD07031CAE033108320453
:1003A0000319492A04302F07B100B201B20D3008F9
:1003B000B2073108FE003208FF0080308A110A12AD
:1003C00060228A110A1283120313B4007F08B3005B
:1003D0002F08FE003008FF0080308A110A126022C8
:1003E0008A110A1283120313B600B2007F08B50007
:1003F000B10002302F07B100B201B20D3008B207D0
:100400003108FE003208FF0080308A110A12602293
:100410008A110A1283120313B200B8007F08B100D8
:10042000B700831203133308B7003408B800FF3055
:10043000B307031CB403370838040319422A3508EC
:10044000FE003608FF0080308A110A124D228A1100
:100450000A1283120313B7003108831203138400B6
:10046000831383120313321883173708831203137D
:10047000800083120313B50A0319B60AB10A0319DF
:10048000B20A112A063083120313AF070318B00A09
:10049000C4298A110A12AD280800003A0319542A07
:1004A000803A03195B2A00347E08840083137F1886
:1004B0008317000808007F088A007E088200080071
:1004C000003A0319682A803A0319722AFF0100349E
:1004D0007E08840083137F1883170008FF00840AB6
:1004E000000808008A110A125B22FD00FE0FFF03BC
:1004F000FF0A8A110A125B22FC007D08FF007C08BB
:100500000800FE34FF34FD34FF34FB34FF34F7348D
:10051000FF34EF34FF34DF34FF34BF34FF347F3433
:10052000FF34FF34FE34FF34FD34FF34FB34FF343A
:10053000F734FF34EF34FF34DF34FF34BF34FF349B
:100540007F3483120313B9007F08BA00BB0108305F
:10055000BC0083120313391CAF2A3A08BB070310EF
:1005600083120313B90C03103A0DBD00BA003C030B
:10057000BD00BC003D08031DA92A3B08080000344B
:100580000034403440346034603470347034783433
:1005900078347C347C347E347E347F347F34003451
:1005A000003402340234063406340E340E341E3461
:1005B0001E343E343E347E347E34FE34FE34013408
:1005C0000034E73402343F34003401340034003462
:02400E00F23F7F
:00000001FF
